{
  "_format": "hh-sol-artifact-1",
  "contractName": "NameRegistryV2",
  "sourceName": "contracts/modeDomainsV2.sol",
  "abi": [
    {
      "inputs": [
        {
          "internalType": "string",
          "name": "_name",
          "type": "string"
        },
        {
          "internalType": "string",
          "name": "_symbol",
          "type": "string"
        }
      ],
      "stateMutability": "nonpayable",
      "type": "constructor"
    },
    {
      "anonymous": false,
      "inputs": [
        {
          "indexed": true,
          "internalType": "address",
          "name": "owner",
          "type": "address"
        },
        {
          "indexed": true,
          "internalType": "address",
          "name": "approved",
          "type": "address"
        },
        {
          "indexed": true,
          "internalType": "uint256",
          "name": "tokenId",
          "type": "uint256"
        }
      ],
      "name": "Approval",
      "type": "event"
    },
    {
      "anonymous": false,
      "inputs": [
        {
          "indexed": true,
          "internalType": "address",
          "name": "owner",
          "type": "address"
        },
        {
          "indexed": true,
          "internalType": "address",
          "name": "operator",
          "type": "address"
        },
        {
          "indexed": false,
          "internalType": "bool",
          "name": "approved",
          "type": "bool"
        }
      ],
      "name": "ApprovalForAll",
      "type": "event"
    },
    {
      "anonymous": false,
      "inputs": [
        {
          "indexed": true,
          "internalType": "address",
          "name": "owner",
          "type": "address"
        },
        {
          "indexed": false,
          "internalType": "string",
          "name": "name",
          "type": "string"
        },
        {
          "indexed": false,
          "internalType": "uint256",
          "name": "expiryTimestamp",
          "type": "uint256"
        }
      ],
      "name": "NameRegistered",
      "type": "event"
    },
    {
      "anonymous": false,
      "inputs": [
        {
          "indexed": true,
          "internalType": "address",
          "name": "owner",
          "type": "address"
        },
        {
          "indexed": false,
          "internalType": "string",
          "name": "name",
          "type": "string"
        },
        {
          "indexed": false,
          "internalType": "uint256",
          "name": "newExpiryTimestamp",
          "type": "uint256"
        }
      ],
      "name": "NameRenewed",
      "type": "event"
    },
    {
      "anonymous": false,
      "inputs": [
        {
          "indexed": true,
          "internalType": "address",
          "name": "from",
          "type": "address"
        },
        {
          "indexed": true,
          "internalType": "address",
          "name": "to",
          "type": "address"
        },
        {
          "indexed": false,
          "internalType": "string",
          "name": "name",
          "type": "string"
        }
      ],
      "name": "NameTransferred",
      "type": "event"
    },
    {
      "anonymous": false,
      "inputs": [
        {
          "indexed": true,
          "internalType": "address",
          "name": "previousOwner",
          "type": "address"
        },
        {
          "indexed": true,
          "internalType": "address",
          "name": "newOwner",
          "type": "address"
        }
      ],
      "name": "OwnershipTransferred",
      "type": "event"
    },
    {
      "anonymous": false,
      "inputs": [
        {
          "indexed": false,
          "internalType": "uint256",
          "name": "newPrice",
          "type": "uint256"
        }
      ],
      "name": "RegistrationPriceChanged",
      "type": "event"
    },
    {
      "anonymous": false,
      "inputs": [
        {
          "indexed": true,
          "internalType": "address",
          "name": "from",
          "type": "address"
        },
        {
          "indexed": true,
          "internalType": "address",
          "name": "to",
          "type": "address"
        },
        {
          "indexed": true,
          "internalType": "uint256",
          "name": "tokenId",
          "type": "uint256"
        }
      ],
      "name": "Transfer",
      "type": "event"
    },
    {
      "inputs": [
        {
          "internalType": "address",
          "name": "to",
          "type": "address"
        },
        {
          "internalType": "uint256",
          "name": "tokenId",
          "type": "uint256"
        }
      ],
      "name": "approve",
      "outputs": [],
      "stateMutability": "nonpayable",
      "type": "function"
    },
    {
      "inputs": [
        {
          "internalType": "address",
          "name": "owner",
          "type": "address"
        }
      ],
      "name": "balanceOf",
      "outputs": [
        {
          "internalType": "uint256",
          "name": "",
          "type": "uint256"
        }
      ],
      "stateMutability": "view",
      "type": "function"
    },
    {
      "inputs": [],
      "name": "baseRegistrationPrice",
      "outputs": [
        {
          "internalType": "uint256",
          "name": "",
          "type": "uint256"
        }
      ],
      "stateMutability": "view",
      "type": "function"
    },
    {
      "inputs": [
        {
          "internalType": "string",
          "name": "name",
          "type": "string"
        },
        {
          "internalType": "uint256",
          "name": "numYears",
          "type": "uint256"
        }
      ],
      "name": "extendDuration",
      "outputs": [],
      "stateMutability": "payable",
      "type": "function"
    },
    {
      "inputs": [],
      "name": "getAllRegisteredAddresses",
      "outputs": [
        {
          "internalType": "address[]",
          "name": "",
          "type": "address[]"
        }
      ],
      "stateMutability": "view",
      "type": "function"
    },
    {
      "inputs": [
        {
          "internalType": "uint256",
          "name": "tokenId",
          "type": "uint256"
        }
      ],
      "name": "getApproved",
      "outputs": [
        {
          "internalType": "address",
          "name": "",
          "type": "address"
        }
      ],
      "stateMutability": "view",
      "type": "function"
    },
    {
      "inputs": [
        {
          "internalType": "address",
          "name": "addr",
          "type": "address"
        }
      ],
      "name": "getNameByAddress",
      "outputs": [
        {
          "internalType": "string",
          "name": "nameValue",
          "type": "string"
        },
        {
          "internalType": "uint256",
          "name": "creationTimestamp",
          "type": "uint256"
        },
        {
          "internalType": "uint256",
          "name": "registrationPrice",
          "type": "uint256"
        },
        {
          "internalType": "uint256",
          "name": "expiryTimestamp",
          "type": "uint256"
        },
        {
          "internalType": "string",
          "name": "tokenURIValue",
          "type": "string"
        }
      ],
      "stateMutability": "view",
      "type": "function"
    },
    {
      "inputs": [
        {
          "internalType": "string",
          "name": "name",
          "type": "string"
        }
      ],
      "name": "getNameDetails",
      "outputs": [
        {
          "internalType": "address",
          "name": "ownerAddress",
          "type": "address"
        },
        {
          "internalType": "uint256",
          "name": "creationTimestamp",
          "type": "uint256"
        },
        {
          "internalType": "uint256",
          "name": "registrationPrice",
          "type": "uint256"
        },
        {
          "internalType": "uint256",
          "name": "expiryTimestamp",
          "type": "uint256"
        },
        {
          "internalType": "string",
          "name": "tokenURIValue",
          "type": "string"
        }
      ],
      "stateMutability": "view",
      "type": "function"
    },
    {
      "inputs": [
        {
          "internalType": "string",
          "name": "name",
          "type": "string"
        }
      ],
      "name": "getRegistrationPrice",
      "outputs": [
        {
          "internalType": "uint256",
          "name": "",
          "type": "uint256"
        }
      ],
      "stateMutability": "view",
      "type": "function"
    },
    {
      "inputs": [
        {
          "internalType": "address",
          "name": "",
          "type": "address"
        }
      ],
      "name": "isAddressRegistered",
      "outputs": [
        {
          "internalType": "bool",
          "name": "",
          "type": "bool"
        }
      ],
      "stateMutability": "view",
      "type": "function"
    },
    {
      "inputs": [
        {
          "internalType": "address",
          "name": "owner",
          "type": "address"
        },
        {
          "internalType": "address",
          "name": "operator",
          "type": "address"
        }
      ],
      "name": "isApprovedForAll",
      "outputs": [
        {
          "internalType": "bool",
          "name": "",
          "type": "bool"
        }
      ],
      "stateMutability": "view",
      "type": "function"
    },
    {
      "inputs": [
        {
          "internalType": "string",
          "name": "name",
          "type": "string"
        },
        {
          "internalType": "string",
          "name": "metadataURI",
          "type": "string"
        },
        {
          "internalType": "address",
          "name": "_addr",
          "type": "address"
        },
        {
          "internalType": "uint256",
          "name": "_timeStamp",
          "type": "uint256"
        }
      ],
      "name": "migrate",
      "outputs": [],
      "stateMutability": "payable",
      "type": "function"
    },
    {
      "inputs": [],
      "name": "name",
      "outputs": [
        {
          "internalType": "string",
          "name": "",
          "type": "string"
        }
      ],
      "stateMutability": "view",
      "type": "function"
    },
    {
      "inputs": [
        {
          "internalType": "string",
          "name": "",
          "type": "string"
        }
      ],
      "name": "nameExists",
      "outputs": [
        {
          "internalType": "bool",
          "name": "",
          "type": "bool"
        }
      ],
      "stateMutability": "view",
      "type": "function"
    },
    {
      "inputs": [
        {
          "internalType": "string",
          "name": "",
          "type": "string"
        }
      ],
      "name": "nameExpiry",
      "outputs": [
        {
          "internalType": "uint256",
          "name": "",
          "type": "uint256"
        }
      ],
      "stateMutability": "view",
      "type": "function"
    },
    {
      "inputs": [
        {
          "internalType": "string",
          "name": "",
          "type": "string"
        }
      ],
      "name": "nameToTokenId",
      "outputs": [
        {
          "internalType": "uint256",
          "name": "",
          "type": "uint256"
        }
      ],
      "stateMutability": "view",
      "type": "function"
    },
    {
      "inputs": [],
      "name": "nextTokenId",
      "outputs": [
        {
          "internalType": "uint256",
          "name": "",
          "type": "uint256"
        }
      ],
      "stateMutability": "view",
      "type": "function"
    },
    {
      "inputs": [],
      "name": "owner",
      "outputs": [
        {
          "internalType": "address",
          "name": "",
          "type": "address"
        }
      ],
      "stateMutability": "view",
      "type": "function"
    },
    {
      "inputs": [
        {
          "internalType": "uint256",
          "name": "tokenId",
          "type": "uint256"
        }
      ],
      "name": "ownerOf",
      "outputs": [
        {
          "internalType": "address",
          "name": "",
          "type": "address"
        }
      ],
      "stateMutability": "view",
      "type": "function"
    },
    {
      "inputs": [
        {
          "internalType": "string",
          "name": "name",
          "type": "string"
        },
        {
          "internalType": "string",
          "name": "metadataURI",
          "type": "string"
        }
      ],
      "name": "registerName",
      "outputs": [],
      "stateMutability": "payable",
      "type": "function"
    },
    {
      "inputs": [],
      "name": "registrationDuration",
      "outputs": [
        {
          "internalType": "uint256",
          "name": "",
          "type": "uint256"
        }
      ],
      "stateMutability": "view",
      "type": "function"
    },
    {
      "inputs": [],
      "name": "renounceOwnership",
      "outputs": [],
      "stateMutability": "nonpayable",
      "type": "function"
    },
    {
      "inputs": [
        {
          "internalType": "string",
          "name": "nameWithTld",
          "type": "string"
        }
      ],
      "name": "resolveName",
      "outputs": [
        {
          "internalType": "address",
          "name": "",
          "type": "address"
        }
      ],
      "stateMutability": "view",
      "type": "function"
    },
    {
      "inputs": [
        {
          "internalType": "address",
          "name": "addr",
          "type": "address"
        }
      ],
      "name": "reverseResolver",
      "outputs": [
        {
          "internalType": "string",
          "name": "",
          "type": "string"
        }
      ],
      "stateMutability": "view",
      "type": "function"
    },
    {
      "inputs": [
        {
          "internalType": "address",
          "name": "from",
          "type": "address"
        },
        {
          "internalType": "address",
          "name": "to",
          "type": "address"
        },
        {
          "internalType": "uint256",
          "name": "tokenId",
          "type": "uint256"
        }
      ],
      "name": "safeTransferFrom",
      "outputs": [],
      "stateMutability": "nonpayable",
      "type": "function"
    },
    {
      "inputs": [
        {
          "internalType": "address",
          "name": "from",
          "type": "address"
        },
        {
          "internalType": "address",
          "name": "to",
          "type": "address"
        },
        {
          "internalType": "uint256",
          "name": "tokenId",
          "type": "uint256"
        },
        {
          "internalType": "bytes",
          "name": "data",
          "type": "bytes"
        }
      ],
      "name": "safeTransferFrom",
      "outputs": [],
      "stateMutability": "nonpayable",
      "type": "function"
    },
    {
      "inputs": [
        {
          "internalType": "address",
          "name": "operator",
          "type": "address"
        },
        {
          "internalType": "bool",
          "name": "approved",
          "type": "bool"
        }
      ],
      "name": "setApprovalForAll",
      "outputs": [],
      "stateMutability": "nonpayable",
      "type": "function"
    },
    {
      "inputs": [
        {
          "internalType": "uint256",
          "name": "price",
          "type": "uint256"
        }
      ],
      "name": "setBaseRegistrationPrice",
      "outputs": [],
      "stateMutability": "nonpayable",
      "type": "function"
    },
    {
      "inputs": [
        {
          "internalType": "uint256",
          "name": "duration",
          "type": "uint256"
        }
      ],
      "name": "setRegistrationDuration",
      "outputs": [],
      "stateMutability": "nonpayable",
      "type": "function"
    },
    {
      "inputs": [
        {
          "internalType": "bytes4",
          "name": "interfaceId",
          "type": "bytes4"
        }
      ],
      "name": "supportsInterface",
      "outputs": [
        {
          "internalType": "bool",
          "name": "",
          "type": "bool"
        }
      ],
      "stateMutability": "view",
      "type": "function"
    },
    {
      "inputs": [],
      "name": "symbol",
      "outputs": [
        {
          "internalType": "string",
          "name": "",
          "type": "string"
        }
      ],
      "stateMutability": "view",
      "type": "function"
    },
    {
      "inputs": [
        {
          "internalType": "uint256",
          "name": "index",
          "type": "uint256"
        }
      ],
      "name": "tokenByIndex",
      "outputs": [
        {
          "internalType": "uint256",
          "name": "",
          "type": "uint256"
        }
      ],
      "stateMutability": "view",
      "type": "function"
    },
    {
      "inputs": [
        {
          "internalType": "string",
          "name": "name",
          "type": "string"
        }
      ],
      "name": "tokenIdOf",
      "outputs": [
        {
          "internalType": "uint256",
          "name": "",
          "type": "uint256"
        }
      ],
      "stateMutability": "view",
      "type": "function"
    },
    {
      "inputs": [
        {
          "internalType": "uint256",
          "name": "",
          "type": "uint256"
        }
      ],
      "name": "tokenIdToCreationTimestamp",
      "outputs": [
        {
          "internalType": "uint256",
          "name": "",
          "type": "uint256"
        }
      ],
      "stateMutability": "view",
      "type": "function"
    },
    {
      "inputs": [
        {
          "internalType": "uint256",
          "name": "",
          "type": "uint256"
        }
      ],
      "name": "tokenIdToName",
      "outputs": [
        {
          "internalType": "string",
          "name": "",
          "type": "string"
        }
      ],
      "stateMutability": "view",
      "type": "function"
    },
    {
      "inputs": [
        {
          "internalType": "address",
          "name": "owner",
          "type": "address"
        },
        {
          "internalType": "uint256",
          "name": "index",
          "type": "uint256"
        }
      ],
      "name": "tokenOfOwnerByIndex",
      "outputs": [
        {
          "internalType": "uint256",
          "name": "",
          "type": "uint256"
        }
      ],
      "stateMutability": "view",
      "type": "function"
    },
    {
      "inputs": [
        {
          "internalType": "uint256",
          "name": "tokenId",
          "type": "uint256"
        }
      ],
      "name": "tokenURI",
      "outputs": [
        {
          "internalType": "string",
          "name": "",
          "type": "string"
        }
      ],
      "stateMutability": "view",
      "type": "function"
    },
    {
      "inputs": [],
      "name": "totalSupply",
      "outputs": [
        {
          "internalType": "uint256",
          "name": "",
          "type": "uint256"
        }
      ],
      "stateMutability": "view",
      "type": "function"
    },
    {
      "inputs": [
        {
          "internalType": "address",
          "name": "from",
          "type": "address"
        },
        {
          "internalType": "address",
          "name": "to",
          "type": "address"
        },
        {
          "internalType": "uint256",
          "name": "tokenId",
          "type": "uint256"
        }
      ],
      "name": "transferFrom",
      "outputs": [],
      "stateMutability": "nonpayable",
      "type": "function"
    },
    {
      "inputs": [
        {
          "internalType": "address",
          "name": "to",
          "type": "address"
        },
        {
          "internalType": "uint256",
          "name": "tokenId",
          "type": "uint256"
        }
      ],
      "name": "transferName",
      "outputs": [],
      "stateMutability": "nonpayable",
      "type": "function"
    },
    {
      "inputs": [
        {
          "internalType": "address",
          "name": "newOwner",
          "type": "address"
        }
      ],
      "name": "transferOwnership",
      "outputs": [],
      "stateMutability": "nonpayable",
      "type": "function"
    },
    {
      "inputs": [],
      "name": "withdraw",
      "outputs": [],
      "stateMutability": "nonpayable",
      "type": "function"
    }
  ],
  "bytecode": "0x60806040526001600b5566b1a2bc2ec50000600c556301e13380600d556040518060400160405280600581526020017f2e6d6f6465000000000000000000000000000000000000000000000000000000815250600e908051906020019062000069929190620001c9565b503480156200007757600080fd5b5060405162005d7c38038062005d7c83398181016040528101906200009d919062000416565b81818160009080519060200190620000b7929190620001c9565b508060019080519060200190620000d0929190620001c9565b505050620000f3620000e7620000fb60201b60201c565b6200010360201b60201c565b505062000500565b600033905090565b6000600a60009054906101000a900473ffffffffffffffffffffffffffffffffffffffff16905081600a60006101000a81548173ffffffffffffffffffffffffffffffffffffffff021916908373ffffffffffffffffffffffffffffffffffffffff1602179055508173ffffffffffffffffffffffffffffffffffffffff168173ffffffffffffffffffffffffffffffffffffffff167f8be0079c531659141344cd1fd0a4f28419497f9722a3daafe3b4186f6b6457e060405160405180910390a35050565b828054620001d790620004ca565b90600052602060002090601f016020900481019282620001fb576000855562000247565b82601f106200021657805160ff191683800117855562000247565b8280016001018555821562000247579182015b828111156200024657825182559160200191906001019062000229565b5b5090506200025691906200025a565b5090565b5b80821115620002755760008160009055506001016200025b565b5090565b6000604051905090565b600080fd5b600080fd5b600080fd5b600080fd5b6000601f19601f8301169050919050565b7f4e487b7100000000000000000000000000000000000000000000000000000000600052604160045260246000fd5b620002e28262000297565b810181811067ffffffffffffffff82111715620003045762000303620002a8565b5b80604052505050565b60006200031962000279565b9050620003278282620002d7565b919050565b600067ffffffffffffffff8211156200034a5762000349620002a8565b5b620003558262000297565b9050602081019050919050565b60005b838110156200038257808201518184015260208101905062000365565b8381111562000392576000848401525b50505050565b6000620003af620003a9846200032c565b6200030d565b905082815260208101848484011115620003ce57620003cd62000292565b5b620003db84828562000362565b509392505050565b600082601f830112620003fb57620003fa6200028d565b5b81516200040d84826020860162000398565b91505092915050565b6000806040838503121562000430576200042f62000283565b5b600083015167ffffffffffffffff81111562000451576200045062000288565b5b6200045f85828601620003e3565b925050602083015167ffffffffffffffff81111562000483576200048262000288565b5b6200049185828601620003e3565b9150509250929050565b7f4e487b7100000000000000000000000000000000000000000000000000000000600052602260045260246000fd5b60006002820490506001821680620004e357607f821691505b60208210811415620004fa57620004f96200049b565b5b50919050565b61586c80620005106000396000f3fe6080604052600436106102515760003560e01c806375794a3c11610139578063c87b56dd116100b6578063dd0012541161007a578063dd00125414610946578063de90d11114610983578063e985e9c5146109ae578063ee6f10f1146109eb578063f2fde38b14610a28578063ff21ce9c14610a5157610251565b8063c87b56dd1461083b578063cc637afe14610878578063d3247cc6146108b5578063d479dbfa146108de578063da2bfdb11461090957610251565b8063a2de9965116100fd578063a2de99651461073f578063a398d8191461075b578063b88d4fde14610798578063bc19bce5146107c1578063c626347b146107fe57610251565b806375794a3c146106545780637c80bb4f1461067f5780638da5cb5b146106c057806395d89b41146106eb578063a22cb4651461071657610251565b80632c122cf6116101d25780634f6ccce7116101965780634f6ccce71461051e57806357d7945c1461055b5780636352211e146105985780636450f31e146105d557806370a0823114610600578063715018a61461063d57610251565b80632c122cf6146104235780632f745c591461046457806338b6a3a1146104a15780633ccfd60b146104de57806342842e0e146104f557610251565b806318160ddd1161021957806318160ddd1461034d578063182d8cea1461037857806323b872dd146103b557806327d40e07146103de57806329f872351461040757610251565b806301ffc9a71461025657806306fdde0314610293578063081812fc146102be578063095ea7b3146102fb578063096e36cc14610324575b600080fd5b34801561026257600080fd5b5061027d60048036038101906102789190613ced565b610a6d565b60405161028a9190613d35565b60405180910390f35b34801561029f57600080fd5b506102a8610ae7565b6040516102b59190613de9565b60405180910390f35b3480156102ca57600080fd5b506102e560048036038101906102e09190613e41565b610b79565b6040516102f29190613eaf565b60405180910390f35b34801561030757600080fd5b50610322600480360381019061031d9190613ef6565b610bbf565b005b34801561033057600080fd5b5061034b60048036038101906103469190613e41565b610cd7565b005b34801561035957600080fd5b50610362610ce9565b60405161036f9190613f45565b60405180910390f35b34801561038457600080fd5b5061039f600480360381019061039a9190614095565b610cf6565b6040516103ac9190613f45565b60405180910390f35b3480156103c157600080fd5b506103dc60048036038101906103d791906140de565b610d24565b005b3480156103ea57600080fd5b5061040560048036038101906104009190613ef6565b610d84565b005b610421600480360381019061041c9190614131565b610f0f565b005b34801561042f57600080fd5b5061044a60048036038101906104459190614095565b61120a565b60405161045b9594939291906141d0565b60405180910390f35b34801561047057600080fd5b5061048b60048036038101906104869190613ef6565b611382565b6040516104989190613f45565b60405180910390f35b3480156104ad57600080fd5b506104c860048036038101906104c3919061422a565b611427565b6040516104d59190613d35565b60405180910390f35b3480156104ea57600080fd5b506104f3611447565b005b34801561050157600080fd5b5061051c600480360381019061051791906140de565b6114a5565b005b34801561052a57600080fd5b5061054560048036038101906105409190613e41565b6114c5565b6040516105529190613f45565b60405180910390f35b34801561056757600080fd5b50610582600480360381019061057d919061422a565b611536565b60405161058f9190613de9565b60405180910390f35b3480156105a457600080fd5b506105bf60048036038101906105ba9190613e41565b61168e565b6040516105cc9190613eaf565b60405180910390f35b3480156105e157600080fd5b506105ea611740565b6040516105f79190613f45565b60405180910390f35b34801561060c57600080fd5b506106276004803603810190610622919061422a565b611746565b6040516106349190613f45565b60405180910390f35b34801561064957600080fd5b506106526117fe565b005b34801561066057600080fd5b50610669611812565b6040516106769190613f45565b60405180910390f35b34801561068b57600080fd5b506106a660048036038101906106a1919061422a565b611818565b6040516106b7959493929190614257565b60405180910390f35b3480156106cc57600080fd5b506106d5611a58565b6040516106e29190613eaf565b60405180910390f35b3480156106f757600080fd5b50610700611a82565b60405161070d9190613de9565b60405180910390f35b34801561072257600080fd5b5061073d600480360381019061073891906142e4565b611b14565b005b61075960048036038101906107549190614324565b611b2a565b005b34801561076757600080fd5b50610782600480360381019061077d9190614095565b611dad565b60405161078f9190613f45565b60405180910390f35b3480156107a457600080fd5b506107bf60048036038101906107ba9190614421565b611dd5565b005b3480156107cd57600080fd5b506107e860048036038101906107e39190614095565b611e37565b6040516107f59190613eaf565b60405180910390f35b34801561080a57600080fd5b5061082560048036038101906108209190614095565b611f47565b6040516108329190613f45565b60405180910390f35b34801561084757600080fd5b50610862600480360381019061085d9190613e41565b61205b565b60405161086f9190613de9565b60405180910390f35b34801561088457600080fd5b5061089f600480360381019061089a9190614095565b6120c3565b6040516108ac9190613d35565b60405180910390f35b3480156108c157600080fd5b506108dc60048036038101906108d79190613e41565b6120f9565b005b3480156108ea57600080fd5b506108f3612142565b6040516109009190614562565b60405180910390f35b34801561091557600080fd5b50610930600480360381019061092b9190613e41565b61223c565b60405161093d9190613de9565b60405180910390f35b34801561095257600080fd5b5061096d60048036038101906109689190614095565b6122dc565b60405161097a9190613f45565b60405180910390f35b34801561098f57600080fd5b5061099861230a565b6040516109a59190613f45565b60405180910390f35b3480156109ba57600080fd5b506109d560048036038101906109d09190614584565b612310565b6040516109e29190613d35565b60405180910390f35b3480156109f757600080fd5b50610a126004803603810190610a0d9190613e41565b6123a4565b604051610a1f9190613f45565b60405180910390f35b348015610a3457600080fd5b50610a4f6004803603810190610a4a919061422a565b6123bc565b005b610a6b6004803603810190610a6691906145c4565b612440565b005b60007f780e9d63000000000000000000000000000000000000000000000000000000007bffffffffffffffffffffffffffffffffffffffffffffffffffffffff1916827bffffffffffffffffffffffffffffffffffffffffffffffffffffffff19161480610ae05750610adf82612781565b5b9050919050565b606060008054610af69061466b565b80601f0160208091040260200160405190810160405280929190818152602001828054610b229061466b565b8015610b6f5780601f10610b4457610100808354040283529160200191610b6f565b820191906000526020600020905b815481529060010190602001808311610b5257829003601f168201915b5050505050905090565b6000610b8482612863565b6004600083815260200190815260200160002060009054906101000a900473ffffffffffffffffffffffffffffffffffffffff169050919050565b6000610bca8261168e565b90508073ffffffffffffffffffffffffffffffffffffffff168373ffffffffffffffffffffffffffffffffffffffff161415610c3b576040517f08c379a0000000000000000000000000000000000000000000000000000000008152600401610c329061470f565b60405180910390fd5b8073ffffffffffffffffffffffffffffffffffffffff16610c5a6128ae565b73ffffffffffffffffffffffffffffffffffffffff161480610c895750610c8881610c836128ae565b612310565b5b610cc8576040517f08c379a0000000000000000000000000000000000000000000000000000000008152600401610cbf906147a1565b60405180910390fd5b610cd283836128b6565b505050565b610cdf61296f565b80600d8190555050565b6000600880549050905090565b6014818051602081018201805184825260208301602085012081835280955050505050506000915090505481565b610d35610d2f6128ae565b826129ed565b610d74576040517f08c379a0000000000000000000000000000000000000000000000000000000008152600401610d6b90614833565b60405180910390fd5b610d7f838383612a82565b505050565b3373ffffffffffffffffffffffffffffffffffffffff16610da48261168e565b73ffffffffffffffffffffffffffffffffffffffff1614610dfa576040517f08c379a0000000000000000000000000000000000000000000000000000000008152600401610df19061489f565b60405180910390fd5b6000601060008381526020019081526020016000208054610e1a9061466b565b80601f0160208091040260200160405190810160405280929190818152602001828054610e469061466b565b8015610e935780601f10610e6857610100808354040283529160200191610e93565b820191906000526020600020905b815481529060010190602001808311610e7657829003601f168201915b50505050509050610ea5338484612a82565b8273ffffffffffffffffffffffffffffffffffffffff163373ffffffffffffffffffffffffffffffffffffffff167f61ce72876df632c9cea54f37e843a14873bc9a7abd2f79797a8a00e467081f3c83604051610f029190613de9565b60405180910390a3505050565b610f1761296f565b60001515600f85604051610f2b91906148fb565b908152602001604051809103902060009054906101000a900460ff16151514610f89576040517f08c379a0000000000000000000000000000000000000000000000000000000008152600401610f809061495e565b60405180910390fd5b60001515601560008473ffffffffffffffffffffffffffffffffffffffff1673ffffffffffffffffffffffffffffffffffffffff16815260200190815260200160002060009054906101000a900460ff1615151461101c576040517f08c379a0000000000000000000000000000000000000000000000000000000008152600401611013906149f0565b60405180910390fd5b61102882600b54612ce9565b600b5460118560405161103b91906148fb565b9081526020016040518091039020819055506001600f8560405161105f91906148fb565b908152602001604051809103902060006101000a81548160ff0219169083151502179055508360106000600b54815260200190815260200160002090805190602001906110ad929190613bde565b508060126000600b548152602001908152602001600020819055508260136000600b54815260200190815260200160002090805190602001906110f1929190613bde565b50600d54816111009190614a3f565b60148560405161111091906148fb565b9081526020016040518091039020819055506001601560008473ffffffffffffffffffffffffffffffffffffffff1673ffffffffffffffffffffffffffffffffffffffff16815260200190815260200160002060006101000a81548160ff0219169083151502179055506111906001600b54612ec390919063ffffffff16565b600b819055508173ffffffffffffffffffffffffffffffffffffffff167fdcc2175a495289b48da3c0c903e6e8fd7bbf9400cc93d7d1b8be780fc5916c66856014876040516111df91906148fb565b9081526020016040518091039020546040516111fc929190614a95565b60405180910390a250505050565b6000806000806060600061121d87611dad565b9050600f8760405161122f91906148fb565b908152602001604051809103902060009054906101000a900460ff1661128a576040517f08c379a000000000000000000000000000000000000000000000000000000000815260040161128190614b11565b60405180910390fd5b6112938161168e565b60126000838152602001908152602001600020546112b089611f47565b60148a6040516112c091906148fb565b908152602001604051809103902054601360008681526020019081526020016000208080546112ee9061466b565b80601f016020809104026020016040519081016040528092919081815260200182805461131a9061466b565b80156113675780601f1061133c57610100808354040283529160200191611367565b820191906000526020600020905b81548152906001019060200180831161134a57829003601f168201915b50505050509050955095509550955095505091939590929450565b600061138d83611746565b82106113ce576040517f08c379a00000000000000000000000000000000000000000000000000000000081526004016113c590614ba3565b60405180910390fd5b600660008473ffffffffffffffffffffffffffffffffffffffff1673ffffffffffffffffffffffffffffffffffffffff168152602001908152602001600020600083815260200190815260200160002054905092915050565b60156020528060005260406000206000915054906101000a900460ff1681565b61144f61296f565b600047905061145c611a58565b73ffffffffffffffffffffffffffffffffffffffff166108fc829081150290604051600060405180830381858888f193505050501580156114a1573d6000803e3d6000fd5b5050565b6114c083838360405180602001604052806000815250611dd5565b505050565b60006114cf610ce9565b8210611510576040517f08c379a000000000000000000000000000000000000000000000000000000000815260040161150790614c35565b60405180910390fd5b6008828154811061152457611523614c55565b5b90600052602060002001549050919050565b60606000600190505b600b548110156116755761155281612ed9565b801561159157508273ffffffffffffffffffffffffffffffffffffffff166115798261168e565b73ffffffffffffffffffffffffffffffffffffffff16145b156116625760006010600083815260200190815260200160002080546115b69061466b565b80601f01602080910402602001604051908101604052809291908181526020018280546115e29061466b565b801561162f5780601f106116045761010080835404028352916020019161162f565b820191906000526020600020905b81548152906001019060200180831161161257829003601f168201915b5050505050905080600e60405160200161164a929190614d18565b60405160208183030381529060405292505050611689565b808061166d90614d3c565b91505061153f565b506040518060200160405280600081525090505b919050565b6000806002600084815260200190815260200160002060009054906101000a900473ffffffffffffffffffffffffffffffffffffffff169050600073ffffffffffffffffffffffffffffffffffffffff168173ffffffffffffffffffffffffffffffffffffffff161415611737576040517f08c379a000000000000000000000000000000000000000000000000000000000815260040161172e90614dd1565b60405180910390fd5b80915050919050565b600c5481565b60008073ffffffffffffffffffffffffffffffffffffffff168273ffffffffffffffffffffffffffffffffffffffff1614156117b7576040517f08c379a00000000000000000000000000000000000000000000000000000000081526004016117ae90614e63565b60405180910390fd5b600360008373ffffffffffffffffffffffffffffffffffffffff1673ffffffffffffffffffffffffffffffffffffffff168152602001908152602001600020549050919050565b61180661296f565b6118106000612f45565b565b600b5481565b60606000806000606060005b600b54811015611a1b5761183781612ed9565b801561187657508673ffffffffffffffffffffffffffffffffffffffff1661185e8261168e565b73ffffffffffffffffffffffffffffffffffffffff16145b15611a0857600060106000838152602001908152602001600020805461189b9061466b565b80601f01602080910402602001604051908101604052809291908181526020018280546118c79061466b565b80156119145780601f106118e957610100808354040283529160200191611914565b820191906000526020600020905b8154815290600101906020018083116118f757829003601f168201915b5050505050905080601260008481526020019081526020016000205461193983611f47565b60148460405161194991906148fb565b908152602001604051809103902054601360008781526020019081526020016000208080546119779061466b565b80601f01602080910402602001604051908101604052809291908181526020018280546119a39061466b565b80156119f05780601f106119c5576101008083540402835291602001916119f0565b820191906000526020600020905b8154815290600101906020018083116119d357829003601f168201915b50505050509050965096509650965096505050611a4f565b8080611a1390614d3c565b915050611824565b5060008060006040518060200160405280600081525092919060405180602001604052806000815250945094509450945094505b91939590929450565b6000600a60009054906101000a900473ffffffffffffffffffffffffffffffffffffffff16905090565b606060018054611a919061466b565b80601f0160208091040260200160405190810160405280929190818152602001828054611abd9061466b565b8015611b0a5780601f10611adf57610100808354040283529160200191611b0a565b820191906000526020600020905b815481529060010190602001808311611aed57829003601f168201915b5050505050905090565b611b26611b1f6128ae565b838361300b565b5050565b600f82604051611b3a91906148fb565b908152602001604051809103902060009054906101000a900460ff16611b95576040517f08c379a0000000000000000000000000000000000000000000000000000000008152600401611b8c90614b11565b60405180910390fd5b3373ffffffffffffffffffffffffffffffffffffffff16611bd3601184604051611bbf91906148fb565b90815260200160405180910390205461168e565b73ffffffffffffffffffffffffffffffffffffffff1614611c29576040517f08c379a0000000000000000000000000000000000000000000000000000000008152600401611c2090614ef5565b60405180910390fd5b60008111611c6c576040517f08c379a0000000000000000000000000000000000000000000000000000000008152600401611c6390614f87565b60405180910390fd5b6000611c89611c7a84611f47565b8361317890919063ffffffff16565b9050803414611ccd576040517f08c379a0000000000000000000000000000000000000000000000000000000008152600401611cc490614ff3565b60405180910390fd5b6000611ce4600d548461317890919063ffffffff16565b9050611d1781601486604051611cfa91906148fb565b908152602001604051809103902054612ec390919063ffffffff16565b601485604051611d2791906148fb565b9081526020016040518091039020819055503373ffffffffffffffffffffffffffffffffffffffff167fa41e0452047546d9b0f775ebc42b65c631a9c861670c6b2479651f4d4a92897785601487604051611d8291906148fb565b908152602001604051809103902054604051611d9f929190614a95565b60405180910390a250505050565b6000601182604051611dbf91906148fb565b9081526020016040518091039020549050919050565b611de6611de06128ae565b836129ed565b611e25576040517f08c379a0000000000000000000000000000000000000000000000000000000008152600401611e1c90614833565b60405180910390fd5b611e318484848461318e565b50505050565b600042601483604051611e4a91906148fb565b90815260200160405180910390205411611e99576040517f08c379a0000000000000000000000000000000000000000000000000000000008152600401611e909061505f565b60405180910390fd5b600e8054611ea69061466b565b9050825111611eea576040517f08c379a0000000000000000000000000000000000000000000000000000000008152600401611ee1906150cb565b60405180910390fd5b6000611f12836000600e8054611eff9061466b565b90508651611f0d91906150eb565b6131ea565b90506000611f1f82611dad565b905060008114611f3b57611f328161168e565b92505050611f42565b6000925050505b919050565b6000808251905060028111611f91576040517f08c379a0000000000000000000000000000000000000000000000000000000008152600401611f8890615191565b60405180910390fd5b6000600c5490506003821415611fbc57611fb560028261317890919063ffffffff16565b9050611ff0565b6003821115611fef57611fec6002611fde60038461317890919063ffffffff16565b61333690919063ffffffff16565b90505b5b60005b828110156120505761202185828151811061201157612010614c55565b5b602001015160f81c60f81b61334c565b1561203d5761203a60028361333690919063ffffffff16565b91505b808061204890614d3c565b915050611ff3565b508092505050919050565b606061206682612863565b600061207061342d565b9050600081511161209057604051806020016040528060008152506120bb565b8061209a84613444565b6040516020016120ab9291906151b1565b6040516020818303038152906040525b915050919050565b600f818051602081018201805184825260208301602085012081835280955050505050506000915054906101000a900460ff1681565b61210161296f565b80600c819055507f7e7c2c306b30146445227c233f02cb49d48e16d60345707ca28ec88bdc02856f816040516121379190613f45565b60405180910390a150565b606060006001600b5461215591906150eb565b67ffffffffffffffff81111561216e5761216d613f6a565b5b60405190808252806020026020018201604052801561219c5781602001602082028036833780820191505090505b5090506000600190505b600b54811015612234576121b981612ed9565b15612221576121c78161168e565b826001836121d591906150eb565b815181106121e6576121e5614c55565b5b602002602001019073ffffffffffffffffffffffffffffffffffffffff16908173ffffffffffffffffffffffffffffffffffffffff16815250505b808061222c90614d3c565b9150506121a6565b508091505090565b6010602052806000526040600020600091509050805461225b9061466b565b80601f01602080910402602001604051908101604052809291908181526020018280546122879061466b565b80156122d45780601f106122a9576101008083540402835291602001916122d4565b820191906000526020600020905b8154815290600101906020018083116122b757829003601f168201915b505050505081565b6011818051602081018201805184825260208301602085012081835280955050505050506000915090505481565b600d5481565b6000600560008473ffffffffffffffffffffffffffffffffffffffff1673ffffffffffffffffffffffffffffffffffffffff16815260200190815260200160002060008373ffffffffffffffffffffffffffffffffffffffff1673ffffffffffffffffffffffffffffffffffffffff16815260200190815260200160002060009054906101000a900460ff16905092915050565b60126020528060005260406000206000915090505481565b6123c461296f565b600073ffffffffffffffffffffffffffffffffffffffff168173ffffffffffffffffffffffffffffffffffffffff161415612434576040517f08c379a000000000000000000000000000000000000000000000000000000000815260040161242b90615247565b60405180910390fd5b61243d81612f45565b50565b60001515600f8360405161245491906148fb565b908152602001604051809103902060009054906101000a900460ff161515146124b2576040517f08c379a00000000000000000000000000000000000000000000000000000000081526004016124a99061495e565b60405180910390fd5b60001515601560003373ffffffffffffffffffffffffffffffffffffffff1673ffffffffffffffffffffffffffffffffffffffff16815260200190815260200160002060009054906101000a900460ff16151514612545576040517f08c379a000000000000000000000000000000000000000000000000000000000815260040161253c906149f0565b60405180910390fd5b600061255083611f47565b9050803414612594576040517f08c379a000000000000000000000000000000000000000000000000000000000815260040161258b90614ff3565b60405180910390fd5b6125a033600b54612ce9565b600b546011846040516125b391906148fb565b9081526020016040518091039020819055506001600f846040516125d791906148fb565b908152602001604051809103902060006101000a81548160ff0219169083151502179055508260106000600b5481526020019081526020016000209080519060200190612625929190613bde565b504260126000600b548152602001908152602001600020819055508160136000600b5481526020019081526020016000209080519060200190612669929190613bde565b50600d54426126789190614a3f565b60148460405161268891906148fb565b9081526020016040518091039020819055506001601560003373ffffffffffffffffffffffffffffffffffffffff1673ffffffffffffffffffffffffffffffffffffffff16815260200190815260200160002060006101000a81548160ff0219169083151502179055506127086001600b54612ec390919063ffffffff16565b600b819055503373ffffffffffffffffffffffffffffffffffffffff167fdcc2175a495289b48da3c0c903e6e8fd7bbf9400cc93d7d1b8be780fc5916c668460148660405161275791906148fb565b908152602001604051809103902054604051612774929190614a95565b60405180910390a2505050565b60007f80ac58cd000000000000000000000000000000000000000000000000000000007bffffffffffffffffffffffffffffffffffffffffffffffffffffffff1916827bffffffffffffffffffffffffffffffffffffffffffffffffffffffff1916148061284c57507f5b5e139f000000000000000000000000000000000000000000000000000000007bffffffffffffffffffffffffffffffffffffffffffffffffffffffff1916827bffffffffffffffffffffffffffffffffffffffffffffffffffffffff1916145b8061285c575061285b826135a5565b5b9050919050565b61286c81612ed9565b6128ab576040517f08c379a00000000000000000000000000000000000000000000000000000000081526004016128a290614dd1565b60405180910390fd5b50565b600033905090565b816004600083815260200190815260200160002060006101000a81548173ffffffffffffffffffffffffffffffffffffffff021916908373ffffffffffffffffffffffffffffffffffffffff160217905550808273ffffffffffffffffffffffffffffffffffffffff166129298361168e565b73ffffffffffffffffffffffffffffffffffffffff167f8c5be1e5ebec7d5bd14f71427d1e84f3dd0314c0f7b2291e5b200ac8c7c3b92560405160405180910390a45050565b6129776128ae565b73ffffffffffffffffffffffffffffffffffffffff16612995611a58565b73ffffffffffffffffffffffffffffffffffffffff16146129eb576040517f08c379a00000000000000000000000000000000000000000000000000000000081526004016129e2906152b3565b60405180910390fd5b565b6000806129f98361168e565b90508073ffffffffffffffffffffffffffffffffffffffff168473ffffffffffffffffffffffffffffffffffffffff161480612a3b5750612a3a8185612310565b5b80612a7957508373ffffffffffffffffffffffffffffffffffffffff16612a6184610b79565b73ffffffffffffffffffffffffffffffffffffffff16145b91505092915050565b8273ffffffffffffffffffffffffffffffffffffffff16612aa28261168e565b73ffffffffffffffffffffffffffffffffffffffff1614612af8576040517f08c379a0000000000000000000000000000000000000000000000000000000008152600401612aef90615345565b60405180910390fd5b600073ffffffffffffffffffffffffffffffffffffffff168273ffffffffffffffffffffffffffffffffffffffff161415612b68576040517f08c379a0000000000000000000000000000000000000000000000000000000008152600401612b5f906153d7565b60405180910390fd5b612b7383838361360f565b612b7e6000826128b6565b6001600360008573ffffffffffffffffffffffffffffffffffffffff1673ffffffffffffffffffffffffffffffffffffffff1681526020019081526020016000206000828254612bce91906150eb565b925050819055506001600360008473ffffffffffffffffffffffffffffffffffffffff1673ffffffffffffffffffffffffffffffffffffffff1681526020019081526020016000206000828254612c259190614a3f565b92505081905550816002600083815260200190815260200160002060006101000a81548173ffffffffffffffffffffffffffffffffffffffff021916908373ffffffffffffffffffffffffffffffffffffffff160217905550808273ffffffffffffffffffffffffffffffffffffffff168473ffffffffffffffffffffffffffffffffffffffff167fddf252ad1be2c89b69c2b068fc378daa952ba7f163c4a11628f55a4df523b3ef60405160405180910390a4612ce4838383613723565b505050565b600073ffffffffffffffffffffffffffffffffffffffff168273ffffffffffffffffffffffffffffffffffffffff161415612d59576040517f08c379a0000000000000000000000000000000000000000000000000000000008152600401612d5090615443565b60405180910390fd5b612d6281612ed9565b15612da2576040517f08c379a0000000000000000000000000000000000000000000000000000000008152600401612d99906154af565b60405180910390fd5b612dae6000838361360f565b6001600360008473ffffffffffffffffffffffffffffffffffffffff1673ffffffffffffffffffffffffffffffffffffffff1681526020019081526020016000206000828254612dfe9190614a3f565b92505081905550816002600083815260200190815260200160002060006101000a81548173ffffffffffffffffffffffffffffffffffffffff021916908373ffffffffffffffffffffffffffffffffffffffff160217905550808273ffffffffffffffffffffffffffffffffffffffff16600073ffffffffffffffffffffffffffffffffffffffff167fddf252ad1be2c89b69c2b068fc378daa952ba7f163c4a11628f55a4df523b3ef60405160405180910390a4612ebf60008383613723565b5050565b60008183612ed19190614a3f565b905092915050565b60008073ffffffffffffffffffffffffffffffffffffffff166002600084815260200190815260200160002060009054906101000a900473ffffffffffffffffffffffffffffffffffffffff1673ffffffffffffffffffffffffffffffffffffffff1614159050919050565b6000600a60009054906101000a900473ffffffffffffffffffffffffffffffffffffffff16905081600a60006101000a81548173ffffffffffffffffffffffffffffffffffffffff021916908373ffffffffffffffffffffffffffffffffffffffff1602179055508173ffffffffffffffffffffffffffffffffffffffff168173ffffffffffffffffffffffffffffffffffffffff167f8be0079c531659141344cd1fd0a4f28419497f9722a3daafe3b4186f6b6457e060405160405180910390a35050565b8173ffffffffffffffffffffffffffffffffffffffff168373ffffffffffffffffffffffffffffffffffffffff16141561307a576040517f08c379a00000000000000000000000000000000000000000000000000000000081526004016130719061551b565b60405180910390fd5b80600560008573ffffffffffffffffffffffffffffffffffffffff1673ffffffffffffffffffffffffffffffffffffffff16815260200190815260200160002060008473ffffffffffffffffffffffffffffffffffffffff1673ffffffffffffffffffffffffffffffffffffffff16815260200190815260200160002060006101000a81548160ff0219169083151502179055508173ffffffffffffffffffffffffffffffffffffffff168373ffffffffffffffffffffffffffffffffffffffff167f17307eab39ab6107e8899845ad3d59bd9653f200f220920489ca2b5937696c318360405161316b9190613d35565b60405180910390a3505050565b60008183613186919061553b565b905092915050565b613199848484612a82565b6131a584848484613728565b6131e4576040517f08c379a00000000000000000000000000000000000000000000000000000000081526004016131db90615607565b60405180910390fd5b50505050565b60606000849050828411158015613202575080518311155b613241576040517f08c379a000000000000000000000000000000000000000000000000000000000815260040161323890615673565b60405180910390fd5b6000848461324f91906150eb565b67ffffffffffffffff81111561326857613267613f6a565b5b6040519080825280601f01601f19166020018201604052801561329a5781602001600182028036833780820191505090505b50905060008590505b84811015613329578281815181106132be576132bd614c55565b5b602001015160f81c60f81b8287836132d691906150eb565b815181106132e7576132e6614c55565b5b60200101907effffffffffffffffffffffffffffffffffffffffffffffffffffffffffffff1916908160001a905350808061332190614d3c565b9150506132a3565b5080925050509392505050565b6000818361334491906156c2565b905092915050565b60007f30000000000000000000000000000000000000000000000000000000000000007effffffffffffffffffffffffffffffffffffffffffffffffffffffffffffff1916827effffffffffffffffffffffffffffffffffffffffffffffffffffffffffffff19161015801561342657507f39000000000000000000000000000000000000000000000000000000000000007effffffffffffffffffffffffffffffffffffffffffffffffffffffffffffff1916827effffffffffffffffffffffffffffffffffffffffffffffffffffffffffffff191611155b9050919050565b606060405180602001604052806000815250905090565b6060600082141561348c576040518060400160405280600181526020017f300000000000000000000000000000000000000000000000000000000000000081525090506135a0565b600082905060005b600082146134be5780806134a790614d3c565b915050600a826134b791906156c2565b9150613494565b60008167ffffffffffffffff8111156134da576134d9613f6a565b5b6040519080825280601f01601f19166020018201604052801561350c5781602001600182028036833780820191505090505b5090505b600085146135995760018261352591906150eb565b9150600a8561353491906156f3565b60306135409190614a3f565b60f81b81838151811061355657613555614c55565b5b60200101907effffffffffffffffffffffffffffffffffffffffffffffffffffffffffffff1916908160001a905350600a8561359291906156c2565b9450613510565b8093505050505b919050565b60007f01ffc9a7000000000000000000000000000000000000000000000000000000007bffffffffffffffffffffffffffffffffffffffffffffffffffffffff1916827bffffffffffffffffffffffffffffffffffffffffffffffffffffffff1916149050919050565b61361a8383836138b0565b600073ffffffffffffffffffffffffffffffffffffffff168373ffffffffffffffffffffffffffffffffffffffff16141561365d57613658816138b5565b61369c565b8173ffffffffffffffffffffffffffffffffffffffff168373ffffffffffffffffffffffffffffffffffffffff161461369b5761369a83826138fe565b5b5b600073ffffffffffffffffffffffffffffffffffffffff168273ffffffffffffffffffffffffffffffffffffffff1614156136df576136da81613a6b565b61371e565b8273ffffffffffffffffffffffffffffffffffffffff168273ffffffffffffffffffffffffffffffffffffffff161461371d5761371c8282613b3c565b5b5b505050565b505050565b60006137498473ffffffffffffffffffffffffffffffffffffffff16613bbb565b156138a3578373ffffffffffffffffffffffffffffffffffffffff1663150b7a026137726128ae565b8786866040518563ffffffff1660e01b81526004016137949493929190615779565b6020604051808303816000875af19250505080156137d057506040513d601f19601f820116820180604052508101906137cd91906157da565b60015b613853573d8060008114613800576040519150601f19603f3d011682016040523d82523d6000602084013e613805565b606091505b5060008151141561384b576040517f08c379a000000000000000000000000000000000000000000000000000000000815260040161384290615607565b60405180910390fd5b805181602001fd5b63150b7a0260e01b7bffffffffffffffffffffffffffffffffffffffffffffffffffffffff1916817bffffffffffffffffffffffffffffffffffffffffffffffffffffffff1916149150506138a8565b600190505b949350505050565b505050565b6008805490506009600083815260200190815260200160002081905550600881908060018154018082558091505060019003906000526020600020016000909190919091505550565b6000600161390b84611746565b61391591906150eb565b90506000600760008481526020019081526020016000205490508181146139fa576000600660008673ffffffffffffffffffffffffffffffffffffffff1673ffffffffffffffffffffffffffffffffffffffff168152602001908152602001600020600084815260200190815260200160002054905080600660008773ffffffffffffffffffffffffffffffffffffffff1673ffffffffffffffffffffffffffffffffffffffff168152602001908152602001600020600084815260200190815260200160002081905550816007600083815260200190815260200160002081905550505b6007600084815260200190815260200160002060009055600660008573ffffffffffffffffffffffffffffffffffffffff1673ffffffffffffffffffffffffffffffffffffffff16815260200190815260200160002060008381526020019081526020016000206000905550505050565b60006001600880549050613a7f91906150eb565b9050600060096000848152602001908152602001600020549050600060088381548110613aaf57613aae614c55565b5b906000526020600020015490508060088381548110613ad157613ad0614c55565b5b906000526020600020018190555081600960008381526020019081526020016000208190555060096000858152602001908152602001600020600090556008805480613b2057613b1f615807565b5b6001900381819060005260206000200160009055905550505050565b6000613b4783611746565b905081600660008573ffffffffffffffffffffffffffffffffffffffff1673ffffffffffffffffffffffffffffffffffffffff168152602001908152602001600020600083815260200190815260200160002081905550806007600084815260200190815260200160002081905550505050565b6000808273ffffffffffffffffffffffffffffffffffffffff163b119050919050565b828054613bea9061466b565b90600052602060002090601f016020900481019282613c0c5760008555613c53565b82601f10613c2557805160ff1916838001178555613c53565b82800160010185558215613c53579182015b82811115613c52578251825591602001919060010190613c37565b5b509050613c609190613c64565b5090565b5b80821115613c7d576000816000905550600101613c65565b5090565b6000604051905090565b600080fd5b600080fd5b60007fffffffff0000000000000000000000000000000000000000000000000000000082169050919050565b613cca81613c95565b8114613cd557600080fd5b50565b600081359050613ce781613cc1565b92915050565b600060208284031215613d0357613d02613c8b565b5b6000613d1184828501613cd8565b91505092915050565b60008115159050919050565b613d2f81613d1a565b82525050565b6000602082019050613d4a6000830184613d26565b92915050565b600081519050919050565b600082825260208201905092915050565b60005b83811015613d8a578082015181840152602081019050613d6f565b83811115613d99576000848401525b50505050565b6000601f19601f8301169050919050565b6000613dbb82613d50565b613dc58185613d5b565b9350613dd5818560208601613d6c565b613dde81613d9f565b840191505092915050565b60006020820190508181036000830152613e038184613db0565b905092915050565b6000819050919050565b613e1e81613e0b565b8114613e2957600080fd5b50565b600081359050613e3b81613e15565b92915050565b600060208284031215613e5757613e56613c8b565b5b6000613e6584828501613e2c565b91505092915050565b600073ffffffffffffffffffffffffffffffffffffffff82169050919050565b6000613e9982613e6e565b9050919050565b613ea981613e8e565b82525050565b6000602082019050613ec46000830184613ea0565b92915050565b613ed381613e8e565b8114613ede57600080fd5b50565b600081359050613ef081613eca565b92915050565b60008060408385031215613f0d57613f0c613c8b565b5b6000613f1b85828601613ee1565b9250506020613f2c85828601613e2c565b9150509250929050565b613f3f81613e0b565b82525050565b6000602082019050613f5a6000830184613f36565b92915050565b600080fd5b600080fd5b7f4e487b7100000000000000000000000000000000000000000000000000000000600052604160045260246000fd5b613fa282613d9f565b810181811067ffffffffffffffff82111715613fc157613fc0613f6a565b5b80604052505050565b6000613fd4613c81565b9050613fe08282613f99565b919050565b600067ffffffffffffffff82111561400057613fff613f6a565b5b61400982613d9f565b9050602081019050919050565b82818337600083830152505050565b600061403861403384613fe5565b613fca565b90508281526020810184848401111561405457614053613f65565b5b61405f848285614016565b509392505050565b600082601f83011261407c5761407b613f60565b5b813561408c848260208601614025565b91505092915050565b6000602082840312156140ab576140aa613c8b565b5b600082013567ffffffffffffffff8111156140c9576140c8613c90565b5b6140d584828501614067565b91505092915050565b6000806000606084860312156140f7576140f6613c8b565b5b600061410586828701613ee1565b935050602061411686828701613ee1565b925050604061412786828701613e2c565b9150509250925092565b6000806000806080858703121561414b5761414a613c8b565b5b600085013567ffffffffffffffff81111561416957614168613c90565b5b61417587828801614067565b945050602085013567ffffffffffffffff81111561419657614195613c90565b5b6141a287828801614067565b93505060406141b387828801613ee1565b92505060606141c487828801613e2c565b91505092959194509250565b600060a0820190506141e56000830188613ea0565b6141f26020830187613f36565b6141ff6040830186613f36565b61420c6060830185613f36565b818103608083015261421e8184613db0565b90509695505050505050565b6000602082840312156142405761423f613c8b565b5b600061424e84828501613ee1565b91505092915050565b600060a08201905081810360008301526142718188613db0565b90506142806020830187613f36565b61428d6040830186613f36565b61429a6060830185613f36565b81810360808301526142ac8184613db0565b90509695505050505050565b6142c181613d1a565b81146142cc57600080fd5b50565b6000813590506142de816142b8565b92915050565b600080604083850312156142fb576142fa613c8b565b5b600061430985828601613ee1565b925050602061431a858286016142cf565b9150509250929050565b6000806040838503121561433b5761433a613c8b565b5b600083013567ffffffffffffffff81111561435957614358613c90565b5b61436585828601614067565b925050602061437685828601613e2c565b9150509250929050565b600067ffffffffffffffff82111561439b5761439a613f6a565b5b6143a482613d9f565b9050602081019050919050565b60006143c46143bf84614380565b613fca565b9050828152602081018484840111156143e0576143df613f65565b5b6143eb848285614016565b509392505050565b600082601f83011261440857614407613f60565b5b81356144188482602086016143b1565b91505092915050565b6000806000806080858703121561443b5761443a613c8b565b5b600061444987828801613ee1565b945050602061445a87828801613ee1565b935050604061446b87828801613e2c565b925050606085013567ffffffffffffffff81111561448c5761448b613c90565b5b614498878288016143f3565b91505092959194509250565b600081519050919050565b600082825260208201905092915050565b6000819050602082019050919050565b6144d981613e8e565b82525050565b60006144eb83836144d0565b60208301905092915050565b6000602082019050919050565b600061450f826144a4565b61451981856144af565b9350614524836144c0565b8060005b8381101561455557815161453c88826144df565b9750614547836144f7565b925050600181019050614528565b5085935050505092915050565b6000602082019050818103600083015261457c8184614504565b905092915050565b6000806040838503121561459b5761459a613c8b565b5b60006145a985828601613ee1565b92505060206145ba85828601613ee1565b9150509250929050565b600080604083850312156145db576145da613c8b565b5b600083013567ffffffffffffffff8111156145f9576145f8613c90565b5b61460585828601614067565b925050602083013567ffffffffffffffff81111561462657614625613c90565b5b61463285828601614067565b9150509250929050565b7f4e487b7100000000000000000000000000000000000000000000000000000000600052602260045260246000fd5b6000600282049050600182168061468357607f821691505b602082108114156146975761469661463c565b5b50919050565b7f4552433732313a20617070726f76616c20746f2063757272656e74206f776e6560008201527f7200000000000000000000000000000000000000000000000000000000000000602082015250565b60006146f9602183613d5b565b91506147048261469d565b604082019050919050565b60006020820190508181036000830152614728816146ec565b9050919050565b7f4552433732313a20617070726f76652063616c6c6572206973206e6f7420746f60008201527f6b656e206f776e6572206e6f7220617070726f76656420666f7220616c6c0000602082015250565b600061478b603e83613d5b565b91506147968261472f565b604082019050919050565b600060208201905081810360008301526147ba8161477e565b9050919050565b7f4552433732313a2063616c6c6572206973206e6f7420746f6b656e206f776e6560008201527f72206e6f7220617070726f766564000000000000000000000000000000000000602082015250565b600061481d602e83613d5b565b9150614828826147c1565b604082019050919050565b6000602082019050818103600083015261484c81614810565b9050919050565b7f4f6e6c7920746865206f776e65722063616e207472616e736665720000000000600082015250565b6000614889601b83613d5b565b915061489482614853565b602082019050919050565b600060208201905081810360008301526148b88161487c565b9050919050565b600081905092915050565b60006148d582613d50565b6148df81856148bf565b93506148ef818560208601613d6c565b80840191505092915050565b600061490782846148ca565b915081905092915050565b7f4e616d6520697320616c72656164792072656769737465726564000000000000600082015250565b6000614948601a83613d5b565b915061495382614912565b602082019050919050565b600060208201905081810360008301526149778161493b565b9050919050565b7f4164647265737320697320616c7265616479207265676973746572656420776960008201527f74682061206e616d650000000000000000000000000000000000000000000000602082015250565b60006149da602983613d5b565b91506149e58261497e565b604082019050919050565b60006020820190508181036000830152614a09816149cd565b9050919050565b7f4e487b7100000000000000000000000000000000000000000000000000000000600052601160045260246000fd5b6000614a4a82613e0b565b9150614a5583613e0b565b9250827fffffffffffffffffffffffffffffffffffffffffffffffffffffffffffffffff03821115614a8a57614a89614a10565b5b828201905092915050565b60006040820190508181036000830152614aaf8185613db0565b9050614abe6020830184613f36565b9392505050565b7f4e616d65206973206e6f74207265676973746572656400000000000000000000600082015250565b6000614afb601683613d5b565b9150614b0682614ac5565b602082019050919050565b60006020820190508181036000830152614b2a81614aee565b9050919050565b7f455243373231456e756d657261626c653a206f776e657220696e646578206f7560008201527f74206f6620626f756e6473000000000000000000000000000000000000000000602082015250565b6000614b8d602b83613d5b565b9150614b9882614b31565b604082019050919050565b60006020820190508181036000830152614bbc81614b80565b9050919050565b7f455243373231456e756d657261626c653a20676c6f62616c20696e646578206f60008201527f7574206f6620626f756e64730000000000000000000000000000000000000000602082015250565b6000614c1f602c83613d5b565b9150614c2a82614bc3565b604082019050919050565b60006020820190508181036000830152614c4e81614c12565b9050919050565b7f4e487b7100000000000000000000000000000000000000000000000000000000600052603260045260246000fd5b60008190508160005260206000209050919050565b60008154614ca68161466b565b614cb081866148bf565b94506001821660008114614ccb5760018114614cdc57614d0f565b60ff19831686528186019350614d0f565b614ce585614c84565b60005b83811015614d0757815481890152600182019150602081019050614ce8565b838801955050505b50505092915050565b6000614d2482856148ca565b9150614d308284614c99565b91508190509392505050565b6000614d4782613e0b565b91507fffffffffffffffffffffffffffffffffffffffffffffffffffffffffffffffff821415614d7a57614d79614a10565b5b600182019050919050565b7f4552433732313a20696e76616c696420746f6b656e2049440000000000000000600082015250565b6000614dbb601883613d5b565b9150614dc682614d85565b602082019050919050565b60006020820190508181036000830152614dea81614dae565b9050919050565b7f4552433732313a2061646472657373207a65726f206973206e6f74206120766160008201527f6c6964206f776e65720000000000000000000000000000000000000000000000602082015250565b6000614e4d602983613d5b565b9150614e5882614df1565b604082019050919050565b60006020820190508181036000830152614e7c81614e40565b9050919050565b7f4f6e6c7920746865206f776e65722063616e20657874656e642064757261746960008201527f6f6e000000000000000000000000000000000000000000000000000000000000602082015250565b6000614edf602283613d5b565b9150614eea82614e83565b604082019050919050565b60006020820190508181036000830152614f0e81614ed2565b9050919050565b7f457874656e73696f6e206475726174696f6e206d75737420626520677265617460008201527f6572207468616e20300000000000000000000000000000000000000000000000602082015250565b6000614f71602983613d5b565b9150614f7c82614f15565b604082019050919050565b60006020820190508181036000830152614fa081614f64565b9050919050565b7f496e73756666696369656e742066756e64732073656e74000000000000000000600082015250565b6000614fdd601783613d5b565b9150614fe882614fa7565b602082019050919050565b6000602082019050818103600083015261500c81614fd0565b9050919050565b7f4d4e532065787069726564206f72206e6f7420666f756e640000000000000000600082015250565b6000615049601883613d5b565b915061505482615013565b602082019050919050565b600060208201905081810360008301526150788161503c565b9050919050565b7f496e76616c6964206e616d6520666f726d617400000000000000000000000000600082015250565b60006150b5601383613d5b565b91506150c08261507f565b602082019050919050565b600060208201905081810360008301526150e4816150a8565b9050919050565b60006150f682613e0b565b915061510183613e0b565b92508282101561511457615113614a10565b5b828203905092915050565b7f4e616d65206d7573742068617665206d6f7265207468616e203220636861726160008201527f6374657273000000000000000000000000000000000000000000000000000000602082015250565b600061517b602583613d5b565b91506151868261511f565b604082019050919050565b600060208201905081810360008301526151aa8161516e565b9050919050565b60006151bd82856148ca565b91506151c982846148ca565b91508190509392505050565b7f4f776e61626c653a206e6577206f776e657220697320746865207a65726f206160008201527f6464726573730000000000000000000000000000000000000000000000000000602082015250565b6000615231602683613d5b565b915061523c826151d5565b604082019050919050565b6000602082019050818103600083015261526081615224565b9050919050565b7f4f776e61626c653a2063616c6c6572206973206e6f7420746865206f776e6572600082015250565b600061529d602083613d5b565b91506152a882615267565b602082019050919050565b600060208201905081810360008301526152cc81615290565b9050919050565b7f4552433732313a207472616e736665722066726f6d20696e636f72726563742060008201527f6f776e6572000000000000000000000000000000000000000000000000000000602082015250565b600061532f602583613d5b565b915061533a826152d3565b604082019050919050565b6000602082019050818103600083015261535e81615322565b9050919050565b7f4552433732313a207472616e7366657220746f20746865207a65726f2061646460008201527f7265737300000000000000000000000000000000000000000000000000000000602082015250565b60006153c1602483613d5b565b91506153cc82615365565b604082019050919050565b600060208201905081810360008301526153f0816153b4565b9050919050565b7f4552433732313a206d696e7420746f20746865207a65726f2061646472657373600082015250565b600061542d602083613d5b565b9150615438826153f7565b602082019050919050565b6000602082019050818103600083015261545c81615420565b9050919050565b7f4552433732313a20746f6b656e20616c7265616479206d696e74656400000000600082015250565b6000615499601c83613d5b565b91506154a482615463565b602082019050919050565b600060208201905081810360008301526154c88161548c565b9050919050565b7f4552433732313a20617070726f766520746f2063616c6c657200000000000000600082015250565b6000615505601983613d5b565b9150615510826154cf565b602082019050919050565b60006020820190508181036000830152615534816154f8565b9050919050565b600061554682613e0b565b915061555183613e0b565b9250817fffffffffffffffffffffffffffffffffffffffffffffffffffffffffffffffff048311821515161561558a57615589614a10565b5b828202905092915050565b7f4552433732313a207472616e7366657220746f206e6f6e20455243373231526560008201527f63656976657220696d706c656d656e7465720000000000000000000000000000602082015250565b60006155f1603283613d5b565b91506155fc82615595565b604082019050919050565b60006020820190508181036000830152615620816155e4565b9050919050565b7f496e76616c696420737562737472696e672072616e6765000000000000000000600082015250565b600061565d601783613d5b565b915061566882615627565b602082019050919050565b6000602082019050818103600083015261568c81615650565b9050919050565b7f4e487b7100000000000000000000000000000000000000000000000000000000600052601260045260246000fd5b60006156cd82613e0b565b91506156d883613e0b565b9250826156e8576156e7615693565b5b828204905092915050565b60006156fe82613e0b565b915061570983613e0b565b92508261571957615718615693565b5b828206905092915050565b600081519050919050565b600082825260208201905092915050565b600061574b82615724565b615755818561572f565b9350615765818560208601613d6c565b61576e81613d9f565b840191505092915050565b600060808201905061578e6000830187613ea0565b61579b6020830186613ea0565b6157a86040830185613f36565b81810360608301526157ba8184615740565b905095945050505050565b6000815190506157d481613cc1565b92915050565b6000602082840312156157f0576157ef613c8b565b5b60006157fe848285016157c5565b91505092915050565b7f4e487b7100000000000000000000000000000000000000000000000000000000600052603160045260246000fdfea2646970667358221220a7356f3c84d50d03206c3f03fa6489e269b5ee7b33a982e58f5dea1598e5f3e064736f6c634300080a0033",
  "linkReferences": {},
  "deployedLinkReferences": {}
}